{
  "_format": "hh-sol-artifact-1",
  "contractName": "KycRegistry",
  "sourceName": "contracts/KycRegistry.sol",
  "abi": [
    {
      "anonymous": false,
      "inputs": [
        {
          "indexed": true,
          "internalType": "bytes32",
          "name": "dataHash",
          "type": "bytes32"
        },
        {
          "indexed": true,
          "internalType": "uint256",
          "name": "bankRequestId",
          "type": "uint256"
        }
      ],
      "name": "RecordAdded",
      "type": "event"
    },
    {
      "anonymous": false,
      "inputs": [
        {
          "indexed": true,
          "internalType": "bytes32",
          "name": "dataHash",
          "type": "bytes32"
        },
        {
          "indexed": false,
          "internalType": "string",
          "name": "newStatus",
          "type": "string"
        }
      ],
      "name": "RecordUpdated",
      "type": "event"
    },
    {
      "inputs": [
        {
          "internalType": "uint256",
          "name": "bankRequestId",
          "type": "uint256"
        },
        {
          "internalType": "uint256",
          "name": "clientId",
          "type": "uint256"
        },
        {
          "internalType": "string",
          "name": "customerName",
          "type": "string"
        },
        {
          "internalType": "string",
          "name": "hashKtp",
          "type": "string"
        },
        {
          "internalType": "string",
          "name": "hashKyc",
          "type": "string"
        },
        {
          "internalType": "string",
          "name": "status",
          "type": "string"
        }
      ],
      "name": "addOrUpdate",
      "outputs": [],
      "stateMutability": "nonpayable",
      "type": "function"
    },
    {
      "inputs": [
        {
          "internalType": "uint256",
          "name": "bankRequestId",
          "type": "uint256"
        },
        {
          "internalType": "uint256",
          "name": "clientId",
          "type": "uint256"
        },
        {
          "internalType": "string",
          "name": "customerName",
          "type": "string"
        },
        {
          "internalType": "string",
          "name": "hashKtp",
          "type": "string"
        },
        {
          "internalType": "string",
          "name": "hashKyc",
          "type": "string"
        }
      ],
      "name": "computeKey",
      "outputs": [
        {
          "internalType": "bytes32",
          "name": "",
          "type": "bytes32"
        }
      ],
      "stateMutability": "pure",
      "type": "function"
    },
    {
      "inputs": [
        {
          "internalType": "bytes32",
          "name": "key",
          "type": "bytes32"
        }
      ],
      "name": "exists",
      "outputs": [
        {
          "internalType": "bool",
          "name": "",
          "type": "bool"
        }
      ],
      "stateMutability": "view",
      "type": "function"
    },
    {
      "inputs": [
        {
          "internalType": "bytes32",
          "name": "key",
          "type": "bytes32"
        }
      ],
      "name": "getRecord",
      "outputs": [
        {
          "components": [
            {
              "internalType": "uint256",
              "name": "bankRequestId",
              "type": "uint256"
            },
            {
              "internalType": "uint256",
              "name": "clientId",
              "type": "uint256"
            },
            {
              "internalType": "string",
              "name": "customerName",
              "type": "string"
            },
            {
              "internalType": "string",
              "name": "hashKtp",
              "type": "string"
            },
            {
              "internalType": "string",
              "name": "hashKyc",
              "type": "string"
            },
            {
              "internalType": "string",
              "name": "status",
              "type": "string"
            },
            {
              "internalType": "uint256",
              "name": "timestamp",
              "type": "uint256"
            }
          ],
          "internalType": "struct KycRegistry.Record",
          "name": "",
          "type": "tuple"
        }
      ],
      "stateMutability": "view",
      "type": "function"
    }
  ],
  "bytecode": "0x608060405234801561001057600080fd5b50610f64806100206000396000f3fe608060405234801561001057600080fd5b506004361061004c5760003560e01c8063213681cd1461005157806338a699a4146100815780635619d469146100b1578063645a3a79146100e1575b600080fd5b61006b6004803603810190610066919061060b565b6100fd565b6040516100789190610792565b60405180910390f35b61009b6004803603810190610096919061060b565b6103e7565b6040516100a891906107cf565b60405180910390f35b6100cb60048036038101906100c6919061087b565b610409565b6040516100d89190610966565b60405180910390f35b6100fb60048036038101906100f69190610981565b61044e565b005b61010561058e565b6000806000848152602001908152602001600020600601540361015d576040517f08c379a000000000000000000000000000000000000000000000000000000000815260040161015490610aee565b60405180910390fd5b6000808381526020019081526020016000206040518060e0016040529081600082015481526020016001820154815260200160028201805461019e90610b3d565b80601f01602080910402602001604051908101604052809291908181526020018280546101ca90610b3d565b80156102175780601f106101ec57610100808354040283529160200191610217565b820191906000526020600020905b8154815290600101906020018083116101fa57829003601f168201915b5050505050815260200160038201805461023090610b3d565b80601f016020809104026020016040519081016040528092919081815260200182805461025c90610b3d565b80156102a95780601f1061027e576101008083540402835291602001916102a9565b820191906000526020600020905b81548152906001019060200180831161028c57829003601f168201915b505050505081526020016004820180546102c290610b3d565b80601f01602080910402602001604051908101604052809291908181526020018280546102ee90610b3d565b801561033b5780601f106103105761010080835404028352916020019161033b565b820191906000526020600020905b81548152906001019060200180831161031e57829003601f168201915b5050505050815260200160058201805461035490610b3d565b80601f016020809104026020016040519081016040528092919081815260200182805461038090610b3d565b80156103cd5780601f106103a2576101008083540402835291602001916103cd565b820191906000526020600020905b8154815290600101906020018083116103b057829003601f168201915b505050505081526020016006820154815250509050919050565b6000806000808481526020019081526020016000206006015414159050919050565b6000888888888888888860405160200161042a989796959493929190610bce565b60405160208183030381529060405280519060200120905098975050505050505050565b600042905060006104658c8c8c8c8c8c8c8c610409565b9050600080600083815260200190815260200160002090506000816006015403610527578c81600001819055508b81600101819055508a8a8260020191826104ae929190610e0d565b5088888260030191826104c2929190610e0d565b5086868260040191826104d6929190610e0d565b5084848260050191826104ea929190610e0d565b508281600601819055508c827fff8a4ee3798e601fb415954573480c094847562cb9c22cc9f117d422417c28da60405160405180910390a361057f565b848482600501918261053a929190610e0d565b50828160060181905550817fc2792f3dddd5fd6ca0ba6d9d105caa850f2d33bb2ed740b980018fe25fb7fcbc8686604051610576929190610f0a565b60405180910390a25b50505050505050505050505050565b6040518060e00160405280600081526020016000815260200160608152602001606081526020016060815260200160608152602001600081525090565b600080fd5b600080fd5b6000819050919050565b6105e8816105d5565b81146105f357600080fd5b50565b600081359050610605816105df565b92915050565b600060208284031215610621576106206105cb565b5b600061062f848285016105f6565b91505092915050565b6000819050919050565b61064b81610638565b82525050565b600081519050919050565b600082825260208201905092915050565b60005b8381101561068b578082015181840152602081019050610670565b60008484015250505050565b6000601f19601f8301169050919050565b60006106b382610651565b6106bd818561065c565b93506106cd81856020860161066d565b6106d681610697565b840191505092915050565b600060e0830160008301516106f96000860182610642565b50602083015161070c6020860182610642565b506040830151848203604086015261072482826106a8565b9150506060830151848203606086015261073e82826106a8565b9150506080830151848203608086015261075882826106a8565b91505060a083015184820360a086015261077282826106a8565b91505060c083015161078760c0860182610642565b508091505092915050565b600060208201905081810360008301526107ac81846106e1565b905092915050565b60008115159050919050565b6107c9816107b4565b82525050565b60006020820190506107e460008301846107c0565b92915050565b6107f381610638565b81146107fe57600080fd5b50565b600081359050610810816107ea565b92915050565b600080fd5b600080fd5b600080fd5b60008083601f84011261083b5761083a610816565b5b8235905067ffffffffffffffff8111156108585761085761081b565b5b60208301915083600182028301111561087457610873610820565b5b9250929050565b60008060008060008060008060a0898b03121561089b5761089a6105cb565b5b60006108a98b828c01610801565b98505060206108ba8b828c01610801565b975050604089013567ffffffffffffffff8111156108db576108da6105d0565b5b6108e78b828c01610825565b9650965050606089013567ffffffffffffffff81111561090a576109096105d0565b5b6109168b828c01610825565b9450945050608089013567ffffffffffffffff811115610939576109386105d0565b5b6109458b828c01610825565b92509250509295985092959890939650565b610960816105d5565b82525050565b600060208201905061097b6000830184610957565b92915050565b60008060008060008060008060008060c08b8d0312156109a4576109a36105cb565b5b60006109b28d828e01610801565b9a505060206109c38d828e01610801565b99505060408b013567ffffffffffffffff8111156109e4576109e36105d0565b5b6109f08d828e01610825565b985098505060608b013567ffffffffffffffff811115610a1357610a126105d0565b5b610a1f8d828e01610825565b965096505060808b013567ffffffffffffffff811115610a4257610a416105d0565b5b610a4e8d828e01610825565b945094505060a08b013567ffffffffffffffff811115610a7157610a706105d0565b5b610a7d8d828e01610825565b92509250509295989b9194979a5092959850565b600082825260208201905092915050565b7f4b796352656769737472793a207265636f7264206e6f7420666f756e64000000600082015250565b6000610ad8601d83610a91565b9150610ae382610aa2565b602082019050919050565b60006020820190508181036000830152610b0781610acb565b9050919050565b7f4e487b7100000000000000000000000000000000000000000000000000000000600052602260045260246000fd5b60006002820490506001821680610b5557607f821691505b602082108103610b6857610b67610b0e565b5b50919050565b6000819050919050565b610b89610b8482610638565b610b6e565b82525050565b600081905092915050565b82818337600083830152505050565b6000610bb58385610b8f565b9350610bc2838584610b9a565b82840190509392505050565b6000610bda828b610b78565b602082019150610bea828a610b78565b602082019150610bfb82888a610ba9565b9150610c08828688610ba9565b9150610c15828486610ba9565b91508190509998505050505050505050565b600082905092915050565b7f4e487b7100000000000000000000000000000000000000000000000000000000600052604160045260246000fd5b60008190508160005260206000209050919050565b60006020601f8301049050919050565b600082821b905092915050565b600060088302610cc37fffffffffffffffffffffffffffffffffffffffffffffffffffffffffffffffff82610c86565b610ccd8683610c86565b95508019841693508086168417925050509392505050565b6000819050919050565b6000610d0a610d05610d0084610638565b610ce5565b610638565b9050919050565b6000819050919050565b610d2483610cef565b610d38610d3082610d11565b848454610c93565b825550505050565b600090565b610d4d610d40565b610d58818484610d1b565b505050565b5b81811015610d7c57610d71600082610d45565b600181019050610d5e565b5050565b601f821115610dc157610d9281610c61565b610d9b84610c76565b81016020851015610daa578190505b610dbe610db685610c76565b830182610d5d565b50505b505050565b600082821c905092915050565b6000610de460001984600802610dc6565b1980831691505092915050565b6000610dfd8383610dd3565b9150826002028217905092915050565b610e178383610c27565b67ffffffffffffffff811115610e3057610e2f610c32565b5b610e3a8254610b3d565b610e45828285610d80565b6000601f831160018114610e745760008415610e62578287013590505b610e6c8582610df1565b865550610ed4565b601f198416610e8286610c61565b60005b82811015610eaa57848901358255600182019150602085019450602081019050610e85565b86831015610ec75784890135610ec3601f891682610dd3565b8355505b6001600288020188555050505b50505050505050565b6000610ee98385610a91565b9350610ef6838584610b9a565b610eff83610697565b840190509392505050565b60006020820190508181036000830152610f25818486610edd565b9050939250505056fea264697066735822122005a8765ca912f948cf090a214f8c191380a88ea5d251dcc36d892209c4d51f8964736f6c63430008110033",
  "linkReferences": {},
  "deployedLinkReferences": {}
}