{
  "_format": "hh-sol-artifact-1",
  "contractName": "KycRegistryV2",
  "sourceName": "contracts/KycRegistryV2.sol",
  "abi": [
    {
      "anonymous": false,
      "inputs": [
        {
          "indexed": true,
          "internalType": "uint256",
          "name": "clientId",
          "type": "uint256"
        }
      ],
      "name": "RecordAdded",
      "type": "event"
    },
    {
      "anonymous": false,
      "inputs": [
        {
          "indexed": true,
          "internalType": "uint256",
          "name": "clientId",
          "type": "uint256"
        },
        {
          "indexed": false,
          "internalType": "string",
          "name": "newStatus",
          "type": "string"
        }
      ],
      "name": "RecordUpdated",
      "type": "event"
    },
    {
      "inputs": [
        {
          "internalType": "uint256",
          "name": "clientId",
          "type": "uint256"
        }
      ],
      "name": "getKyc",
      "outputs": [
        {
          "components": [
            {
              "internalType": "uint256",
              "name": "clientId",
              "type": "uint256"
            },
            {
              "internalType": "string",
              "name": "hashKtp",
              "type": "string"
            },
            {
              "internalType": "string",
              "name": "hashKyc",
              "type": "string"
            },
            {
              "internalType": "string",
              "name": "status",
              "type": "string"
            },
            {
              "internalType": "uint256",
              "name": "timestamp",
              "type": "uint256"
            }
          ],
          "internalType": "struct KycRegistryV2.Record",
          "name": "",
          "type": "tuple"
        }
      ],
      "stateMutability": "view",
      "type": "function"
    },
    {
      "inputs": [
        {
          "internalType": "uint256",
          "name": "clientId",
          "type": "uint256"
        },
        {
          "internalType": "string",
          "name": "hashKtp",
          "type": "string"
        },
        {
          "internalType": "string",
          "name": "hashKyc",
          "type": "string"
        },
        {
          "internalType": "string",
          "name": "status",
          "type": "string"
        }
      ],
      "name": "upsertKyc",
      "outputs": [],
      "stateMutability": "nonpayable",
      "type": "function"
    }
  ],
  "bytecode": "0x608060405234801561001057600080fd5b50610b3f806100206000396000f3fe608060405234801561001057600080fd5b50600436106100365760003560e01c80630aeb07121461003b578063fd0c01e11461006b575b600080fd5b61005560048036038101906100509190610476565b610087565b60405161006291906105c6565b60405180910390f35b6100856004803603810190610080919061064d565b6102d5565b005b61008f610407565b600080600084815260200190815260200160002060040154036100e7576040517f08c379a00000000000000000000000000000000000000000000000000000000081526004016100de90610773565b60405180910390fd5b6000808381526020019081526020016000206040518060a00160405290816000820154815260200160018201805461011e906107c2565b80601f016020809104026020016040519081016040528092919081815260200182805461014a906107c2565b80156101975780601f1061016c57610100808354040283529160200191610197565b820191906000526020600020905b81548152906001019060200180831161017a57829003601f168201915b505050505081526020016002820180546101b0906107c2565b80601f01602080910402602001604051908101604052809291908181526020018280546101dc906107c2565b80156102295780601f106101fe57610100808354040283529160200191610229565b820191906000526020600020905b81548152906001019060200180831161020c57829003601f168201915b50505050508152602001600382018054610242906107c2565b80601f016020809104026020016040519081016040528092919081815260200182805461026e906107c2565b80156102bb5780601f10610290576101008083540402835291602001916102bb565b820191906000526020600020905b81548152906001019060200180831161029e57829003601f168201915b505050505081526020016004820154815250509050919050565b600080600089815260200190815260200160002090506000429050600082600401540361037c5788826000018190555087878360010191826103189291906109d9565b50858583600201918261032c9291906109d9565b5083838360030191826103409291906109d9565b50808260040181905550887fd1959b6f21a13d63764a45c846f4a58f7e55291fb17591ff1d1b3fd4c2953e4560405160405180910390a26103fc565b878783600101918261038f9291906109d9565b5085858360020191826103a39291906109d9565b5083838360030191826103b79291906109d9565b50808260040181905550887f1cbdc1f5cc23b0267e7b11c6580bf9dd18d2b28313a50ea572a09a46b65057d585856040516103f3929190610ae5565b60405180910390a25b505050505050505050565b6040518060a0016040528060008152602001606081526020016060815260200160608152602001600081525090565b600080fd5b600080fd5b6000819050919050565b61045381610440565b811461045e57600080fd5b50565b6000813590506104708161044a565b92915050565b60006020828403121561048c5761048b610436565b5b600061049a84828501610461565b91505092915050565b6104ac81610440565b82525050565b600081519050919050565b600082825260208201905092915050565b60005b838110156104ec5780820151818401526020810190506104d1565b60008484015250505050565b6000601f19601f8301169050919050565b6000610514826104b2565b61051e81856104bd565b935061052e8185602086016104ce565b610537816104f8565b840191505092915050565b600060a08301600083015161055a60008601826104a3565b50602083015184820360208601526105728282610509565b9150506040830151848203604086015261058c8282610509565b915050606083015184820360608601526105a68282610509565b91505060808301516105bb60808601826104a3565b508091505092915050565b600060208201905081810360008301526105e08184610542565b905092915050565b600080fd5b600080fd5b600080fd5b60008083601f84011261060d5761060c6105e8565b5b8235905067ffffffffffffffff81111561062a576106296105ed565b5b602083019150836001820283011115610646576106456105f2565b5b9250929050565b60008060008060008060006080888a03121561066c5761066b610436565b5b600061067a8a828b01610461565b975050602088013567ffffffffffffffff81111561069b5761069a61043b565b5b6106a78a828b016105f7565b9650965050604088013567ffffffffffffffff8111156106ca576106c961043b565b5b6106d68a828b016105f7565b9450945050606088013567ffffffffffffffff8111156106f9576106f861043b565b5b6107058a828b016105f7565b925092505092959891949750929550565b600082825260208201905092915050565b7f6e6f7420666f756e640000000000000000000000000000000000000000000000600082015250565b600061075d600983610716565b915061076882610727565b602082019050919050565b6000602082019050818103600083015261078c81610750565b9050919050565b7f4e487b7100000000000000000000000000000000000000000000000000000000600052602260045260246000fd5b600060028204905060018216806107da57607f821691505b6020821081036107ed576107ec610793565b5b50919050565b600082905092915050565b7f4e487b7100000000000000000000000000000000000000000000000000000000600052604160045260246000fd5b60008190508160005260206000209050919050565b60006020601f8301049050919050565b600082821b905092915050565b60006008830261088f7fffffffffffffffffffffffffffffffffffffffffffffffffffffffffffffffff82610852565b6108998683610852565b95508019841693508086168417925050509392505050565b6000819050919050565b60006108d66108d16108cc84610440565b6108b1565b610440565b9050919050565b6000819050919050565b6108f0836108bb565b6109046108fc826108dd565b84845461085f565b825550505050565b600090565b61091961090c565b6109248184846108e7565b505050565b5b818110156109485761093d600082610911565b60018101905061092a565b5050565b601f82111561098d5761095e8161082d565b61096784610842565b81016020851015610976578190505b61098a61098285610842565b830182610929565b50505b505050565b600082821c905092915050565b60006109b060001984600802610992565b1980831691505092915050565b60006109c9838361099f565b9150826002028217905092915050565b6109e383836107f3565b67ffffffffffffffff8111156109fc576109fb6107fe565b5b610a0682546107c2565b610a1182828561094c565b6000601f831160018114610a405760008415610a2e578287013590505b610a3885826109bd565b865550610aa0565b601f198416610a4e8661082d565b60005b82811015610a7657848901358255600182019150602085019450602081019050610a51565b86831015610a935784890135610a8f601f89168261099f565b8355505b6001600288020188555050505b50505050505050565b82818337600083830152505050565b6000610ac48385610716565b9350610ad1838584610aa9565b610ada836104f8565b840190509392505050565b60006020820190508181036000830152610b00818486610ab8565b9050939250505056fea264697066735822122067bd42365cfb8615423e5296f92c603e53583d0d6b99c5ad3dcd0c203dbf264e64736f6c63430008110033",
  "linkReferences": {},
  "deployedLinkReferences": {}
}